{
  "_format": "hh-sol-artifact-1",
  "contractName": "Inscrible",
  "sourceName": "contracts/Inscrible.sol",
  "abi": [
    {
      "inputs": [
        {
          "internalType": "address",
          "name": "following_key",
          "type": "address"
        }
      ],
      "name": "addFriend",
      "outputs": [],
      "stateMutability": "nonpayable",
      "type": "function"
    },
    {
      "inputs": [
        {
          "internalType": "string",
          "name": "_imgHash",
          "type": "string"
        },
        {
          "internalType": "string",
          "name": "desc",
          "type": "string"
        },
        {
          "internalType": "string",
          "name": "imgText",
          "type": "string"
        }
      ],
      "name": "addPostImage",
      "outputs": [],
      "stateMutability": "nonpayable",
      "type": "function"
    },
    {
      "inputs": [
        {
          "internalType": "address",
          "name": "me",
          "type": "address"
        },
        {
          "internalType": "address",
          "name": "following_key",
          "type": "address"
        }
      ],
      "name": "checkAlreadyFriends",
      "outputs": [
        {
          "internalType": "bool",
          "name": "",
          "type": "bool"
        }
      ],
      "stateMutability": "view",
      "type": "function"
    },
    {
      "inputs": [
        {
          "internalType": "address",
          "name": "key",
          "type": "address"
        }
      ],
      "name": "checkUser",
      "outputs": [
        {
          "internalType": "bool",
          "name": "",
          "type": "bool"
        }
      ],
      "stateMutability": "view",
      "type": "function"
    },
    {
      "inputs": [
        {
          "internalType": "string",
          "name": "_username",
          "type": "string"
        }
      ],
      "name": "createAccount",
      "outputs": [],
      "stateMutability": "nonpayable",
      "type": "function"
    },
    {
      "inputs": [],
      "name": "getAllAppUser",
      "outputs": [
        {
          "components": [
            {
              "internalType": "string",
              "name": "username",
              "type": "string"
            },
            {
              "internalType": "address",
              "name": "accountAddress",
              "type": "address"
            }
          ],
          "internalType": "struct Inscrible.AllUserStruck[]",
          "name": "",
          "type": "tuple[]"
        }
      ],
      "stateMutability": "view",
      "type": "function"
    },
    {
      "inputs": [],
      "name": "getAllPosts",
      "outputs": [
        {
          "components": [
            {
              "internalType": "string",
              "name": "createrName",
              "type": "string"
            },
            {
              "internalType": "address payable",
              "name": "userAddress",
              "type": "address"
            },
            {
              "internalType": "string",
              "name": "imageHash",
              "type": "string"
            },
            {
              "internalType": "string",
              "name": "caption",
              "type": "string"
            },
            {
              "internalType": "string",
              "name": "imageText",
              "type": "string"
            },
            {
              "internalType": "uint256",
              "name": "tipAmount",
              "type": "uint256"
            },
            {
              "internalType": "uint256",
              "name": "id",
              "type": "uint256"
            },
            {
              "internalType": "uint256",
              "name": "likeCount",
              "type": "uint256"
            },
            {
              "internalType": "string[]",
              "name": "likedByUser",
              "type": "string[]"
            }
          ],
          "internalType": "struct Inscrible.Post[]",
          "name": "",
          "type": "tuple[]"
        }
      ],
      "stateMutability": "view",
      "type": "function"
    },
    {
      "inputs": [
        {
          "internalType": "address",
          "name": "_user",
          "type": "address"
        }
      ],
      "name": "getMyFollowersList",
      "outputs": [
        {
          "components": [
            {
              "internalType": "address",
              "name": "pubkey",
              "type": "address"
            },
            {
              "internalType": "string",
              "name": "name",
              "type": "string"
            }
          ],
          "internalType": "struct Inscrible.friend[]",
          "name": "",
          "type": "tuple[]"
        }
      ],
      "stateMutability": "view",
      "type": "function"
    },
    {
      "inputs": [
        {
          "internalType": "address",
          "name": "_user",
          "type": "address"
        }
      ],
      "name": "getMyFollowingsList",
      "outputs": [
        {
          "components": [
            {
              "internalType": "address",
              "name": "pubkey",
              "type": "address"
            },
            {
              "internalType": "string",
              "name": "name",
              "type": "string"
            }
          ],
          "internalType": "struct Inscrible.friend[]",
          "name": "",
          "type": "tuple[]"
        }
      ],
      "stateMutability": "view",
      "type": "function"
    },
    {
      "inputs": [
        {
          "internalType": "address",
          "name": "_user",
          "type": "address"
        }
      ],
      "name": "getMyProfilePost",
      "outputs": [
        {
          "components": [
            {
              "internalType": "string",
              "name": "createrName",
              "type": "string"
            },
            {
              "internalType": "address payable",
              "name": "userAddress",
              "type": "address"
            },
            {
              "internalType": "string",
              "name": "imageHash",
              "type": "string"
            },
            {
              "internalType": "string",
              "name": "caption",
              "type": "string"
            },
            {
              "internalType": "string",
              "name": "imageText",
              "type": "string"
            },
            {
              "internalType": "uint256",
              "name": "tipAmount",
              "type": "uint256"
            },
            {
              "internalType": "uint256",
              "name": "id",
              "type": "uint256"
            },
            {
              "internalType": "uint256",
              "name": "likeCount",
              "type": "uint256"
            },
            {
              "internalType": "string[]",
              "name": "likedByUser",
              "type": "string[]"
            }
          ],
          "internalType": "struct Inscrible.Post[]",
          "name": "",
          "type": "tuple[]"
        }
      ],
      "stateMutability": "view",
      "type": "function"
    },
    {
      "inputs": [
        {
          "internalType": "address",
          "name": "key",
          "type": "address"
        }
      ],
      "name": "getSingleUserLatestPost",
      "outputs": [
        {
          "components": [
            {
              "internalType": "string",
              "name": "createrName",
              "type": "string"
            },
            {
              "internalType": "address payable",
              "name": "userAddress",
              "type": "address"
            },
            {
              "internalType": "string",
              "name": "imageHash",
              "type": "string"
            },
            {
              "internalType": "string",
              "name": "caption",
              "type": "string"
            },
            {
              "internalType": "string",
              "name": "imageText",
              "type": "string"
            },
            {
              "internalType": "uint256",
              "name": "tipAmount",
              "type": "uint256"
            },
            {
              "internalType": "uint256",
              "name": "id",
              "type": "uint256"
            },
            {
              "internalType": "uint256",
              "name": "likeCount",
              "type": "uint256"
            },
            {
              "internalType": "string[]",
              "name": "likedByUser",
              "type": "string[]"
            }
          ],
          "internalType": "struct Inscrible.Post",
          "name": "",
          "type": "tuple"
        }
      ],
      "stateMutability": "view",
      "type": "function"
    },
    {
      "inputs": [
        {
          "internalType": "address",
          "name": "key",
          "type": "address"
        }
      ],
      "name": "getSingleUserPost",
      "outputs": [
        {
          "components": [
            {
              "internalType": "string",
              "name": "createrName",
              "type": "string"
            },
            {
              "internalType": "address payable",
              "name": "userAddress",
              "type": "address"
            },
            {
              "internalType": "string",
              "name": "imageHash",
              "type": "string"
            },
            {
              "internalType": "string",
              "name": "caption",
              "type": "string"
            },
            {
              "internalType": "string",
              "name": "imageText",
              "type": "string"
            },
            {
              "internalType": "uint256",
              "name": "tipAmount",
              "type": "uint256"
            },
            {
              "internalType": "uint256",
              "name": "id",
              "type": "uint256"
            },
            {
              "internalType": "uint256",
              "name": "likeCount",
              "type": "uint256"
            },
            {
              "internalType": "string[]",
              "name": "likedByUser",
              "type": "string[]"
            }
          ],
          "internalType": "struct Inscrible.Post[]",
          "name": "",
          "type": "tuple[]"
        }
      ],
      "stateMutability": "view",
      "type": "function"
    },
    {
      "inputs": [
        {
          "internalType": "address",
          "name": "key",
          "type": "address"
        }
      ],
      "name": "getUsername",
      "outputs": [
        {
          "internalType": "string",
          "name": "",
          "type": "string"
        }
      ],
      "stateMutability": "view",
      "type": "function"
    },
    {
      "inputs": [
        {
          "internalType": "address",
          "name": "followingAddress",
          "type": "address"
        }
      ],
      "name": "removeFriend",
      "outputs": [],
      "stateMutability": "nonpayable",
      "type": "function"
    },
    {
      "stateMutability": "payable",
      "type": "receive"
    }
  ],
  "bytecode": "0x6080604052600060015534801561001557600080fd5b50614710806100256000396000f3fe6080604052600436106100e15760003560e01c806380cee8a51161007f578063b9a4134f11610059578063b9a4134f146102ef578063ce43c0321461032c578063d7a1cfe114610369578063f111439814610392576100e8565b806380cee8a51461025e578063a24d41de14610287578063aed84e7b146102b2576100e8565b806330561100116100bb578063305611001461019057806359737a54146101bb578063734ee8e5146101e457806373fc70b014610221576100e8565b80631e9d48cf146100ed578063298daf5b1461012a5780632e2176f614610153576100e8565b366100e857005b600080fd5b3480156100f957600080fd5b50610114600480360381019061010f919061380f565b6103cf565b6040516101219190613857565b60405180910390f35b34801561013657600080fd5b50610151600480360381019061014c91906138d7565b610441565b005b34801561015f57600080fd5b5061017a6004803603810190610175919061380f565b61062c565b6040516101879190613c5c565b60405180910390f35b34801561019c57600080fd5b506101a5610a63565b6040516101b29190613c5c565b60405180910390f35b3480156101c757600080fd5b506101e260048036038101906101dd9190613dae565b610e58565b005b3480156101f057600080fd5b5061020b6004803603810190610206919061380f565b611679565b6040516102189190613f36565b60405180910390f35b34801561022d57600080fd5b506102486004803603810190610243919061380f565b611ad6565b6040516102559190614066565b60405180910390f35b34801561026a57600080fd5b506102856004803603810190610280919061380f565b611c5f565b005b34801561029357600080fd5b5061029c61235c565b6040516102a99190614187565b60405180910390f35b3480156102be57600080fd5b506102d960048036038101906102d4919061380f565b6124a3565b6040516102e69190614066565b60405180910390f35b3480156102fb57600080fd5b50610316600480360381019061031191906141a9565b61262c565b6040516103239190613857565b60405180910390f35b34801561033857600080fd5b50610353600480360381019061034e919061380f565b612763565b6040516103609190614233565b60405180910390f35b34801561037557600080fd5b50610390600480360381019061038b919061380f565b612837565b005b34801561039e57600080fd5b506103b960048036038101906103b4919061380f565b612caa565b6040516103c69190613c5c565b60405180910390f35b6000806000805490501115610437576000600260008473ffffffffffffffffffffffffffffffffffffffff1673ffffffffffffffffffffffffffffffffffffffff168152602001908152602001600020600001805461042d90614284565b905011905061043c565b600090505b919050565b6000151561044e336103cf565b151514610490576040517f08c379a000000000000000000000000000000000000000000000000000000000815260040161048790614302565b60405180910390fd5b600082829050116104d6576040517f08c379a00000000000000000000000000000000000000000000000000000000081526004016104cd9061436e565b60405180910390fd5b8181600260003373ffffffffffffffffffffffffffffffffffffffff1673ffffffffffffffffffffffffffffffffffffffff1681526020019081526020016000206000019190610527929190613459565b506000604051806040016040528084848080601f016020809104026020016040519081016040528093929190818152602001838380828437600081840152601f19601f8201169050808301925050505050505081526020013373ffffffffffffffffffffffffffffffffffffffff16815250908060018154018082558091505060019003906000526020600020906002020160009091909190915060008201518160000190805190602001906105de9291906134df565b5060208201518160010160006101000a81548173ffffffffffffffffffffffffffffffffffffffff021916908373ffffffffffffffffffffffffffffffffffffffff16021790555050505050565b6060600260008373ffffffffffffffffffffffffffffffffffffffff1673ffffffffffffffffffffffffffffffffffffffff168152602001908152602001600020600301805480602002602001604051908101604052809291908181526020016000905b82821015610a585783829060005260206000209060090201604051806101200160405290816000820180546106c490614284565b80601f01602080910402602001604051908101604052809291908181526020018280546106f090614284565b801561073d5780601f106107125761010080835404028352916020019161073d565b820191906000526020600020905b81548152906001019060200180831161072057829003601f168201915b505050505081526020016001820160009054906101000a900473ffffffffffffffffffffffffffffffffffffffff1673ffffffffffffffffffffffffffffffffffffffff1673ffffffffffffffffffffffffffffffffffffffff1681526020016002820180546107ac90614284565b80601f01602080910402602001604051908101604052809291908181526020018280546107d890614284565b80156108255780601f106107fa57610100808354040283529160200191610825565b820191906000526020600020905b81548152906001019060200180831161080857829003601f168201915b5050505050815260200160038201805461083e90614284565b80601f016020809104026020016040519081016040528092919081815260200182805461086a90614284565b80156108b75780601f1061088c576101008083540402835291602001916108b7565b820191906000526020600020905b81548152906001019060200180831161089a57829003601f168201915b505050505081526020016004820180546108d090614284565b80601f01602080910402602001604051908101604052809291908181526020018280546108fc90614284565b80156109495780601f1061091e57610100808354040283529160200191610949565b820191906000526020600020905b81548152906001019060200180831161092c57829003601f168201915b5050505050815260200160058201548152602001600682015481526020016007820154815260200160088201805480602002602001604051908101604052809291908181526020016000905b82821015610a415783829060005260206000200180546109b490614284565b80601f01602080910402602001604051908101604052809291908181526020018280546109e090614284565b8015610a2d5780601f10610a0257610100808354040283529160200191610a2d565b820191906000526020600020905b815481529060010190602001808311610a1057829003601f168201915b505050505081526020019060010190610995565b505050508152505081526020019060010190610690565b505050509050919050565b60606004805480602002602001604051908101604052809291908181526020016000905b82821015610e4f578382906000526020600020906009020160405180610120016040529081600082018054610abb90614284565b80601f0160208091040260200160405190810160405280929190818152602001828054610ae790614284565b8015610b345780601f10610b0957610100808354040283529160200191610b34565b820191906000526020600020905b815481529060010190602001808311610b1757829003601f168201915b505050505081526020016001820160009054906101000a900473ffffffffffffffffffffffffffffffffffffffff1673ffffffffffffffffffffffffffffffffffffffff1673ffffffffffffffffffffffffffffffffffffffff168152602001600282018054610ba390614284565b80601f0160208091040260200160405190810160405280929190818152602001828054610bcf90614284565b8015610c1c5780601f10610bf157610100808354040283529160200191610c1c565b820191906000526020600020905b815481529060010190602001808311610bff57829003601f168201915b50505050508152602001600382018054610c3590614284565b80601f0160208091040260200160405190810160405280929190818152602001828054610c6190614284565b8015610cae5780601f10610c8357610100808354040283529160200191610cae565b820191906000526020600020905b815481529060010190602001808311610c9157829003601f168201915b50505050508152602001600482018054610cc790614284565b80601f0160208091040260200160405190810160405280929190818152602001828054610cf390614284565b8015610d405780601f10610d1557610100808354040283529160200191610d40565b820191906000526020600020905b815481529060010190602001808311610d2357829003601f168201915b5050505050815260200160058201548152602001600682015481526020016007820154815260200160088201805480602002602001604051908101604052809291908181526020016000905b82821015610e38578382906000526020600020018054610dab90614284565b80601f0160208091040260200160405190810160405280929190818152602001828054610dd790614284565b8015610e245780601f10610df957610100808354040283529160200191610e24565b820191906000526020600020905b815481529060010190602001808311610e0757829003601f168201915b505050505081526020019060010190610d8c565b505050508152505081526020019060010190610a87565b50505050905090565b610e61336103cf565b610ea0576040517f08c379a0000000000000000000000000000000000000000000000000000000008152600401610e97906143da565b60405180910390fd5b6000835111610eae57600080fd5b60016000815480929190610ec190614429565b91905055506000604051806101200160405280600260003373ffffffffffffffffffffffffffffffffffffffff1673ffffffffffffffffffffffffffffffffffffffff1681526020019081526020016000206000018054610f2190614284565b80601f0160208091040260200160405190810160405280929190818152602001828054610f4d90614284565b8015610f9a5780601f10610f6f57610100808354040283529160200191610f9a565b820191906000526020600020905b815481529060010190602001808311610f7d57829003601f168201915b505050505081526020013373ffffffffffffffffffffffffffffffffffffffff16815260200185815260200184815260200183815260200160008152602001600154815260200160008152602001600067ffffffffffffffff81111561100357611002613c83565b5b60405190808252806020026020018201604052801561103657816020015b60608152602001906001900390816110215790505b50815250905060005b600260003373ffffffffffffffffffffffffffffffffffffffff1673ffffffffffffffffffffffffffffffffffffffff168152602001908152602001600020600101805490508110156112865760036000600260003373ffffffffffffffffffffffffffffffffffffffff1673ffffffffffffffffffffffffffffffffffffffff16815260200190815260200160002060010183815481106110e4576110e3614472565b5b906000526020600020906002020160000160009054906101000a900473ffffffffffffffffffffffffffffffffffffffff1673ffffffffffffffffffffffffffffffffffffffff1673ffffffffffffffffffffffffffffffffffffffff16815260200190815260200160002082908060018154018082558091505060019003906000526020600020906009020160009091909190915060008201518160000190805190602001906111969291906134df565b5060208201518160010160006101000a81548173ffffffffffffffffffffffffffffffffffffffff021916908373ffffffffffffffffffffffffffffffffffffffff16021790555060408201518160020190805190602001906111fa9291906134df565b5060608201518160030190805190602001906112179291906134df565b5060808201518160040190805190602001906112349291906134df565b5060a0820151816005015560c0820151816006015560e08201518160070155610100820151816008019080519060200190611270929190613565565b505050808061127e90614429565b91505061103f565b50600260003373ffffffffffffffffffffffffffffffffffffffff1673ffffffffffffffffffffffffffffffffffffffff168152602001908152602001600020600301819080600181540180825580915050600190039060005260206000209060090201600090919091909150600082015181600001908051906020019061130f9291906134df565b5060208201518160010160006101000a81548173ffffffffffffffffffffffffffffffffffffffff021916908373ffffffffffffffffffffffffffffffffffffffff16021790555060408201518160020190805190602001906113739291906134df565b5060608201518160030190805190602001906113909291906134df565b5060808201518160040190805190602001906113ad9291906134df565b5060a0820151816005015560c0820151816006015560e082015181600701556101008201518160080190805190602001906113e9929190613565565b505050600360003373ffffffffffffffffffffffffffffffffffffffff1673ffffffffffffffffffffffffffffffffffffffff16815260200190815260200160002081908060018154018082558091505060019003906000526020600020906009020160009091909190915060008201518160000190805190602001906114719291906134df565b5060208201518160010160006101000a81548173ffffffffffffffffffffffffffffffffffffffff021916908373ffffffffffffffffffffffffffffffffffffffff16021790555060408201518160020190805190602001906114d59291906134df565b5060608201518160030190805190602001906114f29291906134df565b50608082015181600401908051906020019061150f9291906134df565b5060a0820151816005015560c0820151816006015560e0820151816007015561010082015181600801908051906020019061154b929190613565565b505050600481908060018154018082558091505060019003906000526020600020906009020160009091909190915060008201518160000190805190602001906115969291906134df565b5060208201518160010160006101000a81548173ffffffffffffffffffffffffffffffffffffffff021916908373ffffffffffffffffffffffffffffffffffffffff16021790555060408201518160020190805190602001906115fa9291906134df565b5060608201518160030190805190602001906116179291906134df565b5060808201518160040190805190602001906116349291906134df565b5060a0820151816005015560c0820151816006015560e08201518160070155610100820151816008019080519060200190611670929190613565565b50505050505050565b6116816135c5565b600360008373ffffffffffffffffffffffffffffffffffffffff1673ffffffffffffffffffffffffffffffffffffffff1681526020019081526020016000206001600360008573ffffffffffffffffffffffffffffffffffffffff1673ffffffffffffffffffffffffffffffffffffffff1681526020019081526020016000208054905061170f91906144a1565b815481106117205761171f614472565b5b90600052602060002090600902016040518061012001604052908160008201805461174a90614284565b80601f016020809104026020016040519081016040528092919081815260200182805461177690614284565b80156117c35780601f10611798576101008083540402835291602001916117c3565b820191906000526020600020905b8154815290600101906020018083116117a657829003601f168201915b505050505081526020016001820160009054906101000a900473ffffffffffffffffffffffffffffffffffffffff1673ffffffffffffffffffffffffffffffffffffffff1673ffffffffffffffffffffffffffffffffffffffff16815260200160028201805461183290614284565b80601f016020809104026020016040519081016040528092919081815260200182805461185e90614284565b80156118ab5780601f10611880576101008083540402835291602001916118ab565b820191906000526020600020905b81548152906001019060200180831161188e57829003601f168201915b505050505081526020016003820180546118c490614284565b80601f01602080910402602001604051908101604052809291908181526020018280546118f090614284565b801561193d5780601f106119125761010080835404028352916020019161193d565b820191906000526020600020905b81548152906001019060200180831161192057829003601f168201915b5050505050815260200160048201805461195690614284565b80601f016020809104026020016040519081016040528092919081815260200182805461198290614284565b80156119cf5780601f106119a4576101008083540402835291602001916119cf565b820191906000526020600020905b8154815290600101906020018083116119b257829003601f168201915b5050505050815260200160058201548152602001600682015481526020016007820154815260200160088201805480602002602001604051908101604052809291908181526020016000905b82821015611ac7578382906000526020600020018054611a3a90614284565b80601f0160208091040260200160405190810160405280929190818152602001828054611a6690614284565b8015611ab35780601f10611a8857610100808354040283529160200191611ab3565b820191906000526020600020905b815481529060010190602001808311611a9657829003601f168201915b505050505081526020019060010190611a1b565b50505050815250509050919050565b6060600260008373ffffffffffffffffffffffffffffffffffffffff1673ffffffffffffffffffffffffffffffffffffffff168152602001908152602001600020600101805480602002602001604051908101604052809291908181526020016000905b82821015611c5457838290600052602060002090600202016040518060400160405290816000820160009054906101000a900473ffffffffffffffffffffffffffffffffffffffff1673ffffffffffffffffffffffffffffffffffffffff1673ffffffffffffffffffffffffffffffffffffffff168152602001600182018054611bc390614284565b80601f0160208091040260200160405190810160405280929190818152602001828054611bef90614284565b8015611c3c5780601f10611c1157610100808354040283529160200191611c3c565b820191906000526020600020905b815481529060010190602001808311611c1f57829003601f168201915b50505050508152505081526020019060010190611b3a565b505050509050919050565b6000806000905060005b600260008573ffffffffffffffffffffffffffffffffffffffff1673ffffffffffffffffffffffffffffffffffffffff16815260200190815260200160002060010180549050811015611d8e573373ffffffffffffffffffffffffffffffffffffffff16600260008673ffffffffffffffffffffffffffffffffffffffff1673ffffffffffffffffffffffffffffffffffffffff1681526020019081526020016000206001018281548110611d2157611d20614472565b5b906000526020600020906002020160000160009054906101000a900473ffffffffffffffffffffffffffffffffffffffff1673ffffffffffffffffffffffffffffffffffffffff161415611d7b5780925060019150611d8e565b8080611d8690614429565b915050611c69565b508015611fd757600260008473ffffffffffffffffffffffffffffffffffffffff1673ffffffffffffffffffffffffffffffffffffffff1681526020019081526020016000206001016001600260008673ffffffffffffffffffffffffffffffffffffffff1673ffffffffffffffffffffffffffffffffffffffff16815260200190815260200160002060010180549050611e2991906144a1565b81548110611e3a57611e39614472565b5b9060005260206000209060020201600260008573ffffffffffffffffffffffffffffffffffffffff1673ffffffffffffffffffffffffffffffffffffffff1681526020019081526020016000206001018381548110611e9c57611e9b614472565b5b90600052602060002090600202016000820160009054906101000a900473ffffffffffffffffffffffffffffffffffffffff168160000160006101000a81548173ffffffffffffffffffffffffffffffffffffffff021916908373ffffffffffffffffffffffffffffffffffffffff1602179055506001820181600101908054611f2590614284565b611f30929190613627565b50905050600260008473ffffffffffffffffffffffffffffffffffffffff1673ffffffffffffffffffffffffffffffffffffffff168152602001908152602001600020600101805480611f8657611f856144d5565b5b6001900381819060005260206000209060020201600080820160006101000a81549073ffffffffffffffffffffffffffffffffffffffff0219169055600182016000611fd291906136b4565b505090555b6000806000905060005b600260003373ffffffffffffffffffffffffffffffffffffffff1673ffffffffffffffffffffffffffffffffffffffff16815260200190815260200160002060020180549050811015612106578573ffffffffffffffffffffffffffffffffffffffff16600260003373ffffffffffffffffffffffffffffffffffffffff1673ffffffffffffffffffffffffffffffffffffffff168152602001908152602001600020600201828154811061209957612098614472565b5b906000526020600020906002020160000160009054906101000a900473ffffffffffffffffffffffffffffffffffffffff1673ffffffffffffffffffffffffffffffffffffffff1614156120f35780925060019150612106565b80806120fe90614429565b915050611fe1565b508015612355576000600260003373ffffffffffffffffffffffffffffffffffffffff1673ffffffffffffffffffffffffffffffffffffffff168152602001908152602001600020600201805490509050600260003373ffffffffffffffffffffffffffffffffffffffff1673ffffffffffffffffffffffffffffffffffffffff1681526020019081526020016000206002016001826121a691906144a1565b815481106121b7576121b6614472565b5b9060005260206000209060020201600260003373ffffffffffffffffffffffffffffffffffffffff1673ffffffffffffffffffffffffffffffffffffffff168152602001908152602001600020600201848154811061221957612218614472565b5b90600052602060002090600202016000820160009054906101000a900473ffffffffffffffffffffffffffffffffffffffff168160000160006101000a81548173ffffffffffffffffffffffffffffffffffffffff021916908373ffffffffffffffffffffffffffffffffffffffff16021790555060018201816001019080546122a290614284565b6122ad929190613627565b50905050600260003373ffffffffffffffffffffffffffffffffffffffff1673ffffffffffffffffffffffffffffffffffffffff168152602001908152602001600020600201805480612303576123026144d5565b5b6001900381819060005260206000209060020201600080820160006101000a81549073ffffffffffffffffffffffffffffffffffffffff021916905560018201600061234f91906136b4565b50509055505b5050505050565b60606000805480602002602001604051908101604052809291908181526020016000905b8282101561249a57838290600052602060002090600202016040518060400160405290816000820180546123b390614284565b80601f01602080910402602001604051908101604052809291908181526020018280546123df90614284565b801561242c5780601f106124015761010080835404028352916020019161242c565b820191906000526020600020905b81548152906001019060200180831161240f57829003601f168201915b505050505081526020016001820160009054906101000a900473ffffffffffffffffffffffffffffffffffffffff1673ffffffffffffffffffffffffffffffffffffffff1673ffffffffffffffffffffffffffffffffffffffff168152505081526020019060010190612380565b50505050905090565b6060600260008373ffffffffffffffffffffffffffffffffffffffff1673ffffffffffffffffffffffffffffffffffffffff168152602001908152602001600020600201805480602002602001604051908101604052809291908181526020016000905b8282101561262157838290600052602060002090600202016040518060400160405290816000820160009054906101000a900473ffffffffffffffffffffffffffffffffffffffff1673ffffffffffffffffffffffffffffffffffffffff1673ffffffffffffffffffffffffffffffffffffffff16815260200160018201805461259090614284565b80601f01602080910402602001604051908101604052809291908181526020018280546125bc90614284565b80156126095780601f106125de57610100808354040283529160200191612609565b820191906000526020600020905b8154815290600101906020018083116125ec57829003601f168201915b50505050508152505081526020019060010190612507565b505050509050919050565b600080600090505b600260008473ffffffffffffffffffffffffffffffffffffffff1673ffffffffffffffffffffffffffffffffffffffff16815260200190815260200160002060010180549050811015612757578373ffffffffffffffffffffffffffffffffffffffff16600260008573ffffffffffffffffffffffffffffffffffffffff1673ffffffffffffffffffffffffffffffffffffffff16815260200190815260200160002060010182815481106126ec576126eb614472565b5b906000526020600020906002020160000160009054906101000a900473ffffffffffffffffffffffffffffffffffffffff1673ffffffffffffffffffffffffffffffffffffffff16141561274457600191505061275d565b808061274f90614429565b915050612634565b50600090505b92915050565b6060600260008373ffffffffffffffffffffffffffffffffffffffff1673ffffffffffffffffffffffffffffffffffffffff16815260200190815260200160002060000180546127b290614284565b80601f01602080910402602001604051908101604052809291908181526020018280546127de90614284565b801561282b5780601f106128005761010080835404028352916020019161282b565b820191906000526020600020905b81548152906001019060200180831161280e57829003601f168201915b50505050509050919050565b612840336103cf565b61287f576040517f08c379a000000000000000000000000000000000000000000000000000000000815260040161287690614550565b60405180910390fd5b612888816103cf565b6128c7576040517f08c379a00000000000000000000000000000000000000000000000000000000081526004016128be906145bc565b60405180910390fd5b8073ffffffffffffffffffffffffffffffffffffffff163373ffffffffffffffffffffffffffffffffffffffff161415612936576040517f08c379a000000000000000000000000000000000000000000000000000000000815260040161292d9061464e565b60405180910390fd5b60001515612944338361262c565b151514612986576040517f08c379a000000000000000000000000000000000000000000000000000000000815260040161297d906146ba565b60405180910390fd5b612a5b8133600260003373ffffffffffffffffffffffffffffffffffffffff1673ffffffffffffffffffffffffffffffffffffffff16815260200190815260200160002060000180546129d890614284565b80601f0160208091040260200160405190810160405280929190818152602001828054612a0490614284565b8015612a515780601f10612a2657610100808354040283529160200191612a51565b820191906000526020600020905b815481529060010190602001808311612a3457829003601f168201915b5050505050613186565b60005b600260008373ffffffffffffffffffffffffffffffffffffffff1673ffffffffffffffffffffffffffffffffffffffff16815260200190815260200160002060030180549050811015612ca657600360003373ffffffffffffffffffffffffffffffffffffffff1673ffffffffffffffffffffffffffffffffffffffff168152602001908152602001600020600260008473ffffffffffffffffffffffffffffffffffffffff1673ffffffffffffffffffffffffffffffffffffffff1681526020019081526020016000206003018281548110612b3e57612b3d614472565b5b906000526020600020906009020190806001815401808255809150506001900390600052602060002090600902016000909190919091506000820181600001908054612b8990614284565b612b94929190613627565b506001820160009054906101000a900473ffffffffffffffffffffffffffffffffffffffff168160010160006101000a81548173ffffffffffffffffffffffffffffffffffffffff021916908373ffffffffffffffffffffffffffffffffffffffff1602179055506002820181600201908054612c1090614284565b612c1b929190613627565b506003820181600301908054612c3090614284565b612c3b929190613627565b506004820181600401908054612c5090614284565b612c5b929190613627565b506005820154816005015560068201548160060155600782015481600701556008820181600801908054612c909291906136f4565b5050508080612c9e90614429565b915050612a5e565b5050565b60606000600360008473ffffffffffffffffffffffffffffffffffffffff1673ffffffffffffffffffffffffffffffffffffffff16815260200190815260200160002080549050111561312957600360008373ffffffffffffffffffffffffffffffffffffffff1673ffffffffffffffffffffffffffffffffffffffff168152602001908152602001600020805480602002602001604051908101604052809291908181526020016000905b8282101561311e578382906000526020600020906009020160405180610120016040529081600082018054612d8a90614284565b80601f0160208091040260200160405190810160405280929190818152602001828054612db690614284565b8015612e035780601f10612dd857610100808354040283529160200191612e03565b820191906000526020600020905b815481529060010190602001808311612de657829003601f168201915b505050505081526020016001820160009054906101000a900473ffffffffffffffffffffffffffffffffffffffff1673ffffffffffffffffffffffffffffffffffffffff1673ffffffffffffffffffffffffffffffffffffffff168152602001600282018054612e7290614284565b80601f0160208091040260200160405190810160405280929190818152602001828054612e9e90614284565b8015612eeb5780601f10612ec057610100808354040283529160200191612eeb565b820191906000526020600020905b815481529060010190602001808311612ece57829003601f168201915b50505050508152602001600382018054612f0490614284565b80601f0160208091040260200160405190810160405280929190818152602001828054612f3090614284565b8015612f7d5780601f10612f5257610100808354040283529160200191612f7d565b820191906000526020600020905b815481529060010190602001808311612f6057829003601f168201915b50505050508152602001600482018054612f9690614284565b80601f0160208091040260200160405190810160405280929190818152602001828054612fc290614284565b801561300f5780601f10612fe45761010080835404028352916020019161300f565b820191906000526020600020905b815481529060010190602001808311612ff257829003601f168201915b5050505050815260200160058201548152602001600682015481526020016007820154815260200160088201805480602002602001604051908101604052809291908181526020016000905b8282101561310757838290600052602060002001805461307a90614284565b80601f01602080910402602001604051908101604052809291908181526020018280546130a690614284565b80156130f35780601f106130c8576101008083540402835291602001916130f3565b820191906000526020600020905b8154815290600101906020018083116130d657829003601f168201915b50505050508152602001906001019061305b565b505050508152505081526020019060010190612d56565b505050509050613181565b600067ffffffffffffffff81111561314457613143613c83565b5b60405190808252806020026020018201604052801561317d57816020015b61316a6135c5565b8152602001906001900390816131625790505b5090505b919050565b600060405180604001604052808473ffffffffffffffffffffffffffffffffffffffff168152602001838152509050600260008573ffffffffffffffffffffffffffffffffffffffff1673ffffffffffffffffffffffffffffffffffffffff16815260200190815260200160002060010181908060018154018082558091505060019003906000526020600020906002020160009091909190915060008201518160000160006101000a81548173ffffffffffffffffffffffffffffffffffffffff021916908373ffffffffffffffffffffffffffffffffffffffff16021790555060208201518160010190805190602001906132849291906134df565b505050600060405180604001604052808673ffffffffffffffffffffffffffffffffffffffff168152602001600260008873ffffffffffffffffffffffffffffffffffffffff1673ffffffffffffffffffffffffffffffffffffffff16815260200190815260200160002060000180546132fd90614284565b80601f016020809104026020016040519081016040528092919081815260200182805461332990614284565b80156133765780601f1061334b57610100808354040283529160200191613376565b820191906000526020600020905b81548152906001019060200180831161335957829003601f168201915b50505050508152509050600260008573ffffffffffffffffffffffffffffffffffffffff1673ffffffffffffffffffffffffffffffffffffffff16815260200190815260200160002060020181908060018154018082558091505060019003906000526020600020906002020160009091909190915060008201518160000160006101000a81548173ffffffffffffffffffffffffffffffffffffffff021916908373ffffffffffffffffffffffffffffffffffffffff160217905550602082015181600101908051906020019061344f9291906134df565b5050505050505050565b82805461346590614284565b90600052602060002090601f01602090048101928261348757600085556134ce565b82601f106134a057803560ff19168380011785556134ce565b828001600101855582156134ce579182015b828111156134cd5782358255916020019190600101906134b2565b5b5090506134db919061375c565b5090565b8280546134eb90614284565b90600052602060002090601f01602090048101928261350d5760008555613554565b82601f1061352657805160ff1916838001178555613554565b82800160010185558215613554579182015b82811115613553578251825591602001919060010190613538565b5b509050613561919061375c565b5090565b8280548282559060005260206000209081019282156135b4579160200282015b828111156135b35782518290805190602001906135a39291906134df565b5091602001919060010190613585565b5b5090506135c19190613779565b5090565b60405180610120016040528060608152602001600073ffffffffffffffffffffffffffffffffffffffff168152602001606081526020016060815260200160608152602001600081526020016000815260200160008152602001606081525090565b82805461363390614284565b90600052602060002090601f01602090048101928261365557600085556136a3565b82601f1061366657805485556136a3565b828001600101855582156136a357600052602060002091601f016020900482015b828111156136a2578254825591600101919060010190613687565b5b5090506136b0919061375c565b5090565b5080546136c090614284565b6000825580601f106136d257506136f1565b601f0160209004906000526020600020908101906136f0919061375c565b5b50565b82805482825590600052602060002090810192821561374b5760005260206000209182015b8281111561374a57828290805461372f90614284565b61373a929190613627565b5091600101919060010190613719565b5b5090506137589190613779565b5090565b5b8082111561377557600081600090555060010161375d565b5090565b5b80821115613799576000818161379091906136b4565b5060010161377a565b5090565b6000604051905090565b600080fd5b600080fd5b600073ffffffffffffffffffffffffffffffffffffffff82169050919050565b60006137dc826137b1565b9050919050565b6137ec816137d1565b81146137f757600080fd5b50565b600081359050613809816137e3565b92915050565b600060208284031215613825576138246137a7565b5b6000613833848285016137fa565b91505092915050565b60008115159050919050565b6138518161383c565b82525050565b600060208201905061386c6000830184613848565b92915050565b600080fd5b600080fd5b600080fd5b60008083601f84011261389757613896613872565b5b8235905067ffffffffffffffff8111156138b4576138b3613877565b5b6020830191508360018202830111156138d0576138cf61387c565b5b9250929050565b600080602083850312156138ee576138ed6137a7565b5b600083013567ffffffffffffffff81111561390c5761390b6137ac565b5b61391885828601613881565b92509250509250929050565b600081519050919050565b600082825260208201905092915050565b6000819050602082019050919050565b600081519050919050565b600082825260208201905092915050565b60005b8381101561398a57808201518184015260208101905061396f565b83811115613999576000848401525b50505050565b6000601f19601f8301169050919050565b60006139bb82613950565b6139c5818561395b565b93506139d581856020860161396c565b6139de8161399f565b840191505092915050565b60006139f4826137b1565b9050919050565b613a04816139e9565b82525050565b6000819050919050565b613a1d81613a0a565b82525050565b600081519050919050565b600082825260208201905092915050565b6000819050602082019050919050565b6000613a5b83836139b0565b905092915050565b6000602082019050919050565b6000613a7b82613a23565b613a858185613a2e565b935083602082028501613a9785613a3f565b8060005b85811015613ad35784840389528151613ab48582613a4f565b9450613abf83613a63565b925060208a01995050600181019050613a9b565b50829750879550505050505092915050565b6000610120830160008301518482036000860152613b0382826139b0565b9150506020830151613b1860208601826139fb565b5060408301518482036040860152613b3082826139b0565b91505060608301518482036060860152613b4a82826139b0565b91505060808301518482036080860152613b6482826139b0565b91505060a0830151613b7960a0860182613a14565b5060c0830151613b8c60c0860182613a14565b5060e0830151613b9f60e0860182613a14565b50610100830151848203610100860152613bb98282613a70565b9150508091505092915050565b6000613bd28383613ae5565b905092915050565b6000602082019050919050565b6000613bf282613924565b613bfc818561392f565b935083602082028501613c0e85613940565b8060005b85811015613c4a5784840389528151613c2b8582613bc6565b9450613c3683613bda565b925060208a01995050600181019050613c12565b50829750879550505050505092915050565b60006020820190508181036000830152613c768184613be7565b905092915050565b600080fd5b7f4e487b7100000000000000000000000000000000000000000000000000000000600052604160045260246000fd5b613cbb8261399f565b810181811067ffffffffffffffff82111715613cda57613cd9613c83565b5b80604052505050565b6000613ced61379d565b9050613cf98282613cb2565b919050565b600067ffffffffffffffff821115613d1957613d18613c83565b5b613d228261399f565b9050602081019050919050565b82818337600083830152505050565b6000613d51613d4c84613cfe565b613ce3565b905082815260208101848484011115613d6d57613d6c613c7e565b5b613d78848285613d2f565b509392505050565b600082601f830112613d9557613d94613872565b5b8135613da5848260208601613d3e565b91505092915050565b600080600060608486031215613dc757613dc66137a7565b5b600084013567ffffffffffffffff811115613de557613de46137ac565b5b613df186828701613d80565b935050602084013567ffffffffffffffff811115613e1257613e116137ac565b5b613e1e86828701613d80565b925050604084013567ffffffffffffffff811115613e3f57613e3e6137ac565b5b613e4b86828701613d80565b9150509250925092565b6000610120830160008301518482036000860152613e7382826139b0565b9150506020830151613e8860208601826139fb565b5060408301518482036040860152613ea082826139b0565b91505060608301518482036060860152613eba82826139b0565b91505060808301518482036080860152613ed482826139b0565b91505060a0830151613ee960a0860182613a14565b5060c0830151613efc60c0860182613a14565b5060e0830151613f0f60e0860182613a14565b50610100830151848203610100860152613f298282613a70565b9150508091505092915050565b60006020820190508181036000830152613f508184613e55565b905092915050565b600081519050919050565b600082825260208201905092915050565b6000819050602082019050919050565b613f8d816137d1565b82525050565b6000604083016000830151613fab6000860182613f84565b5060208301518482036020860152613fc382826139b0565b9150508091505092915050565b6000613fdc8383613f93565b905092915050565b6000602082019050919050565b6000613ffc82613f58565b6140068185613f63565b93508360208202850161401885613f74565b8060005b8581101561405457848403895281516140358582613fd0565b945061404083613fe4565b925060208a0199505060018101905061401c565b50829750879550505050505092915050565b600060208201905081810360008301526140808184613ff1565b905092915050565b600081519050919050565b600082825260208201905092915050565b6000819050602082019050919050565b600060408301600083015184820360008601526140d182826139b0565b91505060208301516140e66020860182613f84565b508091505092915050565b60006140fd83836140b4565b905092915050565b6000602082019050919050565b600061411d82614088565b6141278185614093565b935083602082028501614139856140a4565b8060005b85811015614175578484038952815161415685826140f1565b945061416183614105565b925060208a0199505060018101905061413d565b50829750879550505050505092915050565b600060208201905081810360008301526141a18184614112565b905092915050565b600080604083850312156141c0576141bf6137a7565b5b60006141ce858286016137fa565b92505060206141df858286016137fa565b9150509250929050565b600082825260208201905092915050565b600061420582613950565b61420f81856141e9565b935061421f81856020860161396c565b6142288161399f565b840191505092915050565b6000602082019050818103600083015261424d81846141fa565b905092915050565b7f4e487b7100000000000000000000000000000000000000000000000000000000600052602260045260246000fd5b6000600282049050600182168061429c57607f821691505b602082108114156142b0576142af614255565b5b50919050565b7f5573657220616c726564792068617320616e206163636f756e74210000000000600082015250565b60006142ec601b836141e9565b91506142f7826142b6565b602082019050919050565b6000602082019050818103600083015261431b816142df565b9050919050565b7f55736572206e616d652073686f756c64206e6f7420626520656d707479210000600082015250565b6000614358601e836141e9565b915061436382614322565b602082019050919050565b600060208201905081810360008301526143878161434b565b9050919050565b7f55736572206e6f74207265676973746572656421000000000000000000000000600082015250565b60006143c46014836141e9565b91506143cf8261438e565b602082019050919050565b600060208201905081810360008301526143f3816143b7565b9050919050565b7f4e487b7100000000000000000000000000000000000000000000000000000000600052601160045260246000fd5b600061443482613a0a565b91507fffffffffffffffffffffffffffffffffffffffffffffffffffffffffffffffff821415614467576144666143fa565b5b600182019050919050565b7f4e487b7100000000000000000000000000000000000000000000000000000000600052603260045260246000fd5b60006144ac82613a0a565b91506144b783613a0a565b9250828210156144ca576144c96143fa565b5b828203905092915050565b7f4e487b7100000000000000000000000000000000000000000000000000000000600052603160045260246000fd5b7f43726561746520616e206163636f756e74206669727374000000000000000000600082015250565b600061453a6017836141e9565b915061454582614504565b602082019050919050565b600060208201905081810360008301526145698161452d565b9050919050565b7f55736572206973206e6f74207265676973746572656421000000000000000000600082015250565b60006145a66017836141e9565b91506145b182614570565b602082019050919050565b600060208201905081810360008301526145d581614599565b9050919050565b7f55736572732063616e6e6f7420616464207468656d6573656c7665732061732060008201527f667269656e647300000000000000000000000000000000000000000000000000602082015250565b60006146386027836141e9565b9150614643826145dc565b604082019050919050565b600060208201905081810360008301526146678161462b565b9050919050565b7f54686573652075736572732061726520616c726561647920667269656e647300600082015250565b60006146a4601f836141e9565b91506146af8261466e565b602082019050919050565b600060208201905081810360008301526146d381614697565b905091905056fea264697066735822122076fce69242930f1e0083246f590d111f2518b9244e6f0544056b7b4ed282855064736f6c63430008090033",
  "linkReferences": {},
  "deployedLinkReferences": {}
}