{
  "_format": "hh-sol-artifact-1",
  "contractName": "Inscrible",
  "sourceName": "contracts/Inscrible.sol",
  "abi": [
    {
      "inputs": [
        {
          "internalType": "address",
          "name": "following_key",
          "type": "address"
        }
      ],
      "name": "addFriend",
      "outputs": [],
      "stateMutability": "nonpayable",
      "type": "function"
    },
    {
      "inputs": [
        {
          "internalType": "string",
          "name": "_imgHash",
          "type": "string"
        },
        {
          "internalType": "string",
          "name": "desc",
          "type": "string"
        },
        {
          "internalType": "string",
          "name": "imgText",
          "type": "string"
        }
      ],
      "name": "addPostImage",
      "outputs": [],
      "stateMutability": "nonpayable",
      "type": "function"
    },
    {
      "inputs": [
        {
          "internalType": "address",
          "name": "me",
          "type": "address"
        },
        {
          "internalType": "address",
          "name": "following_key",
          "type": "address"
        }
      ],
      "name": "checkAlreadyFriends",
      "outputs": [
        {
          "internalType": "bool",
          "name": "",
          "type": "bool"
        }
      ],
      "stateMutability": "view",
      "type": "function"
    },
    {
      "inputs": [
        {
          "internalType": "address",
          "name": "key",
          "type": "address"
        }
      ],
      "name": "checkUser",
      "outputs": [
        {
          "internalType": "bool",
          "name": "",
          "type": "bool"
        }
      ],
      "stateMutability": "view",
      "type": "function"
    },
    {
      "inputs": [
        {
          "internalType": "string",
          "name": "_username",
          "type": "string"
        }
      ],
      "name": "createAccount",
      "outputs": [],
      "stateMutability": "nonpayable",
      "type": "function"
    },
    {
      "inputs": [],
      "name": "getAllAppUser",
      "outputs": [
        {
          "components": [
            {
              "internalType": "string",
              "name": "username",
              "type": "string"
            },
            {
              "internalType": "address",
              "name": "accountAddress",
              "type": "address"
            }
          ],
          "internalType": "struct Inscrible.AllUserStruck[]",
          "name": "",
          "type": "tuple[]"
        }
      ],
      "stateMutability": "view",
      "type": "function"
    },
    {
      "inputs": [],
      "name": "getAllPosts",
      "outputs": [
        {
          "components": [
            {
              "internalType": "string",
              "name": "createrName",
              "type": "string"
            },
            {
              "internalType": "address payable",
              "name": "userAddress",
              "type": "address"
            },
            {
              "internalType": "string",
              "name": "imageHash",
              "type": "string"
            },
            {
              "internalType": "string",
              "name": "caption",
              "type": "string"
            },
            {
              "internalType": "string",
              "name": "imageText",
              "type": "string"
            },
            {
              "internalType": "uint256",
              "name": "tipAmount",
              "type": "uint256"
            },
            {
              "internalType": "uint256",
              "name": "id",
              "type": "uint256"
            },
            {
              "internalType": "uint256",
              "name": "likeCount",
              "type": "uint256"
            },
            {
              "internalType": "string[]",
              "name": "likedByUser",
              "type": "string[]"
            }
          ],
          "internalType": "struct Inscrible.Post[]",
          "name": "",
          "type": "tuple[]"
        }
      ],
      "stateMutability": "view",
      "type": "function"
    },
    {
      "inputs": [],
      "name": "getMyFollowersList",
      "outputs": [
        {
          "components": [
            {
              "internalType": "address",
              "name": "pubkey",
              "type": "address"
            },
            {
              "internalType": "string",
              "name": "name",
              "type": "string"
            }
          ],
          "internalType": "struct Inscrible.friend[]",
          "name": "",
          "type": "tuple[]"
        }
      ],
      "stateMutability": "view",
      "type": "function"
    },
    {
      "inputs": [],
      "name": "getMyFollowingsList",
      "outputs": [
        {
          "components": [
            {
              "internalType": "address",
              "name": "pubkey",
              "type": "address"
            },
            {
              "internalType": "string",
              "name": "name",
              "type": "string"
            }
          ],
          "internalType": "struct Inscrible.friend[]",
          "name": "",
          "type": "tuple[]"
        }
      ],
      "stateMutability": "view",
      "type": "function"
    },
    {
      "inputs": [
        {
          "internalType": "address",
          "name": "key",
          "type": "address"
        }
      ],
      "name": "getSingleUserLatestPost",
      "outputs": [
        {
          "components": [
            {
              "internalType": "string",
              "name": "createrName",
              "type": "string"
            },
            {
              "internalType": "address payable",
              "name": "userAddress",
              "type": "address"
            },
            {
              "internalType": "string",
              "name": "imageHash",
              "type": "string"
            },
            {
              "internalType": "string",
              "name": "caption",
              "type": "string"
            },
            {
              "internalType": "string",
              "name": "imageText",
              "type": "string"
            },
            {
              "internalType": "uint256",
              "name": "tipAmount",
              "type": "uint256"
            },
            {
              "internalType": "uint256",
              "name": "id",
              "type": "uint256"
            },
            {
              "internalType": "uint256",
              "name": "likeCount",
              "type": "uint256"
            },
            {
              "internalType": "string[]",
              "name": "likedByUser",
              "type": "string[]"
            }
          ],
          "internalType": "struct Inscrible.Post",
          "name": "",
          "type": "tuple"
        }
      ],
      "stateMutability": "view",
      "type": "function"
    },
    {
      "inputs": [
        {
          "internalType": "address",
          "name": "key",
          "type": "address"
        }
      ],
      "name": "getSingleUserPost",
      "outputs": [
        {
          "components": [
            {
              "internalType": "string",
              "name": "createrName",
              "type": "string"
            },
            {
              "internalType": "address payable",
              "name": "userAddress",
              "type": "address"
            },
            {
              "internalType": "string",
              "name": "imageHash",
              "type": "string"
            },
            {
              "internalType": "string",
              "name": "caption",
              "type": "string"
            },
            {
              "internalType": "string",
              "name": "imageText",
              "type": "string"
            },
            {
              "internalType": "uint256",
              "name": "tipAmount",
              "type": "uint256"
            },
            {
              "internalType": "uint256",
              "name": "id",
              "type": "uint256"
            },
            {
              "internalType": "uint256",
              "name": "likeCount",
              "type": "uint256"
            },
            {
              "internalType": "string[]",
              "name": "likedByUser",
              "type": "string[]"
            }
          ],
          "internalType": "struct Inscrible.Post[]",
          "name": "",
          "type": "tuple[]"
        }
      ],
      "stateMutability": "view",
      "type": "function"
    },
    {
      "inputs": [
        {
          "internalType": "address",
          "name": "key",
          "type": "address"
        }
      ],
      "name": "getUsername",
      "outputs": [
        {
          "internalType": "string",
          "name": "",
          "type": "string"
        }
      ],
      "stateMutability": "view",
      "type": "function"
    },
    {
      "inputs": [
        {
          "internalType": "address",
          "name": "followingAddress",
          "type": "address"
        }
      ],
      "name": "removeFriend",
      "outputs": [],
      "stateMutability": "nonpayable",
      "type": "function"
    },
    {
      "stateMutability": "payable",
      "type": "receive"
    }
  ],
  "bytecode": "0x6080604052600060015534801561001557600080fd5b50614259806100256000396000f3fe6080604052600436106100c65760003560e01c806380cee8a51161007f578063b9a4134f11610059578063b9a4134f14610273578063ce43c032146102b0578063d7a1cfe1146102ed578063f111439814610316576100cd565b806380cee8a5146101f4578063a24d41de1461021d578063a8b37ff214610248576100cd565b8063060f0eb2146100d25780631e9d48cf146100fd578063298daf5b1461013a578063305611001461016357806359737a541461018e578063734ee8e5146101b7576100cd565b366100cd57005b600080fd5b3480156100de57600080fd5b506100e7610353565b6040516100f491906134bf565b60405180910390f35b34801561010957600080fd5b50610124600480360381019061011f9190613521565b6104da565b6040516101319190613569565b60405180910390f35b34801561014657600080fd5b50610161600480360381019061015c91906135e9565b61054c565b005b34801561016f57600080fd5b50610178610737565b60405161018591906138d5565b60405180910390f35b34801561019a57600080fd5b506101b560048036038101906101b09190613a27565b610b2c565b005b3480156101c357600080fd5b506101de60048036038101906101d99190613521565b61134d565b6040516101eb9190613baf565b60405180910390f35b34801561020057600080fd5b5061021b60048036038101906102169190613521565b6117aa565b005b34801561022957600080fd5b50610232611ea7565b60405161023f9190613cd0565b60405180910390f35b34801561025457600080fd5b5061025d611fee565b60405161026a91906134bf565b60405180910390f35b34801561027f57600080fd5b5061029a60048036038101906102959190613cf2565b612175565b6040516102a79190613569565b60405180910390f35b3480156102bc57600080fd5b506102d760048036038101906102d29190613521565b6122ac565b6040516102e49190613d7c565b60405180910390f35b3480156102f957600080fd5b50610314600480360381019061030f9190613521565b612380565b005b34801561032257600080fd5b5061033d60048036038101906103389190613521565b6127f3565b60405161034a91906138d5565b60405180910390f35b6060600360003373ffffffffffffffffffffffffffffffffffffffff1673ffffffffffffffffffffffffffffffffffffffff168152602001908152602001600020600101805480602002602001604051908101604052809291908181526020016000905b828210156104d157838290600052602060002090600202016040518060400160405290816000820160009054906101000a900473ffffffffffffffffffffffffffffffffffffffff1673ffffffffffffffffffffffffffffffffffffffff1673ffffffffffffffffffffffffffffffffffffffff16815260200160018201805461044090613dcd565b80601f016020809104026020016040519081016040528092919081815260200182805461046c90613dcd565b80156104b95780601f1061048e576101008083540402835291602001916104b9565b820191906000526020600020905b81548152906001019060200180831161049c57829003601f168201915b505050505081525050815260200190600101906103b7565b50505050905090565b6000806000805490501115610542576000600360008473ffffffffffffffffffffffffffffffffffffffff1673ffffffffffffffffffffffffffffffffffffffff168152602001908152602001600020600001805461053890613dcd565b9050119050610547565b600090505b919050565b60001515610559336104da565b15151461059b576040517f08c379a000000000000000000000000000000000000000000000000000000000815260040161059290613e4b565b60405180910390fd5b600082829050116105e1576040517f08c379a00000000000000000000000000000000000000000000000000000000081526004016105d890613eb7565b60405180910390fd5b8181600360003373ffffffffffffffffffffffffffffffffffffffff1673ffffffffffffffffffffffffffffffffffffffff1681526020019081526020016000206000019190610632929190612fa2565b506000604051806040016040528084848080601f016020809104026020016040519081016040528093929190818152602001838380828437600081840152601f19601f8201169050808301925050505050505081526020013373ffffffffffffffffffffffffffffffffffffffff16815250908060018154018082558091505060019003906000526020600020906002020160009091909190915060008201518160000190805190602001906106e9929190613028565b5060208201518160010160006101000a81548173ffffffffffffffffffffffffffffffffffffffff021916908373ffffffffffffffffffffffffffffffffffffffff16021790555050505050565b60606005805480602002602001604051908101604052809291908181526020016000905b82821015610b2357838290600052602060002090600902016040518061012001604052908160008201805461078f90613dcd565b80601f01602080910402602001604051908101604052809291908181526020018280546107bb90613dcd565b80156108085780601f106107dd57610100808354040283529160200191610808565b820191906000526020600020905b8154815290600101906020018083116107eb57829003601f168201915b505050505081526020016001820160009054906101000a900473ffffffffffffffffffffffffffffffffffffffff1673ffffffffffffffffffffffffffffffffffffffff1673ffffffffffffffffffffffffffffffffffffffff16815260200160028201805461087790613dcd565b80601f01602080910402602001604051908101604052809291908181526020018280546108a390613dcd565b80156108f05780601f106108c5576101008083540402835291602001916108f0565b820191906000526020600020905b8154815290600101906020018083116108d357829003601f168201915b5050505050815260200160038201805461090990613dcd565b80601f016020809104026020016040519081016040528092919081815260200182805461093590613dcd565b80156109825780601f1061095757610100808354040283529160200191610982565b820191906000526020600020905b81548152906001019060200180831161096557829003601f168201915b5050505050815260200160048201805461099b90613dcd565b80601f01602080910402602001604051908101604052809291908181526020018280546109c790613dcd565b8015610a145780601f106109e957610100808354040283529160200191610a14565b820191906000526020600020905b8154815290600101906020018083116109f757829003601f168201915b5050505050815260200160058201548152602001600682015481526020016007820154815260200160088201805480602002602001604051908101604052809291908181526020016000905b82821015610b0c578382906000526020600020018054610a7f90613dcd565b80601f0160208091040260200160405190810160405280929190818152602001828054610aab90613dcd565b8015610af85780601f10610acd57610100808354040283529160200191610af8565b820191906000526020600020905b815481529060010190602001808311610adb57829003601f168201915b505050505081526020019060010190610a60565b50505050815250508152602001906001019061075b565b50505050905090565b610b35336104da565b610b74576040517f08c379a0000000000000000000000000000000000000000000000000000000008152600401610b6b90613f23565b60405180910390fd5b6000835111610b8257600080fd5b60016000815480929190610b9590613f72565b91905055506000604051806101200160405280600360003373ffffffffffffffffffffffffffffffffffffffff1673ffffffffffffffffffffffffffffffffffffffff1681526020019081526020016000206000018054610bf590613dcd565b80601f0160208091040260200160405190810160405280929190818152602001828054610c2190613dcd565b8015610c6e5780601f10610c4357610100808354040283529160200191610c6e565b820191906000526020600020905b815481529060010190602001808311610c5157829003601f168201915b505050505081526020013373ffffffffffffffffffffffffffffffffffffffff16815260200185815260200184815260200183815260200160008152602001600154815260200160008152602001600067ffffffffffffffff811115610cd757610cd66138fc565b5b604051908082528060200260200182016040528015610d0a57816020015b6060815260200190600190039081610cf55790505b50815250905060005b600360003373ffffffffffffffffffffffffffffffffffffffff1673ffffffffffffffffffffffffffffffffffffffff16815260200190815260200160002060010180549050811015610f5a5760046000600360003373ffffffffffffffffffffffffffffffffffffffff1673ffffffffffffffffffffffffffffffffffffffff1681526020019081526020016000206001018381548110610db857610db7613fbb565b5b906000526020600020906002020160000160009054906101000a900473ffffffffffffffffffffffffffffffffffffffff1673ffffffffffffffffffffffffffffffffffffffff1673ffffffffffffffffffffffffffffffffffffffff1681526020019081526020016000208290806001815401808255809150506001900390600052602060002090600902016000909190919091506000820151816000019080519060200190610e6a929190613028565b5060208201518160010160006101000a81548173ffffffffffffffffffffffffffffffffffffffff021916908373ffffffffffffffffffffffffffffffffffffffff1602179055506040820151816002019080519060200190610ece929190613028565b506060820151816003019080519060200190610eeb929190613028565b506080820151816004019080519060200190610f08929190613028565b5060a0820151816005015560c0820151816006015560e08201518160070155610100820151816008019080519060200190610f449291906130ae565b5050508080610f5290613f72565b915050610d13565b50600360003373ffffffffffffffffffffffffffffffffffffffff1673ffffffffffffffffffffffffffffffffffffffff1681526020019081526020016000206003018190806001815401808255809150506001900390600052602060002090600902016000909190919091506000820151816000019080519060200190610fe3929190613028565b5060208201518160010160006101000a81548173ffffffffffffffffffffffffffffffffffffffff021916908373ffffffffffffffffffffffffffffffffffffffff1602179055506040820151816002019080519060200190611047929190613028565b506060820151816003019080519060200190611064929190613028565b506080820151816004019080519060200190611081929190613028565b5060a0820151816005015560c0820151816006015560e082015181600701556101008201518160080190805190602001906110bd9291906130ae565b505050600460003373ffffffffffffffffffffffffffffffffffffffff1673ffffffffffffffffffffffffffffffffffffffff1681526020019081526020016000208190806001815401808255809150506001900390600052602060002090600902016000909190919091506000820151816000019080519060200190611145929190613028565b5060208201518160010160006101000a81548173ffffffffffffffffffffffffffffffffffffffff021916908373ffffffffffffffffffffffffffffffffffffffff16021790555060408201518160020190805190602001906111a9929190613028565b5060608201518160030190805190602001906111c6929190613028565b5060808201518160040190805190602001906111e3929190613028565b5060a0820151816005015560c0820151816006015560e0820151816007015561010082015181600801908051906020019061121f9291906130ae565b5050506005819080600181540180825580915050600190039060005260206000209060090201600090919091909150600082015181600001908051906020019061126a929190613028565b5060208201518160010160006101000a81548173ffffffffffffffffffffffffffffffffffffffff021916908373ffffffffffffffffffffffffffffffffffffffff16021790555060408201518160020190805190602001906112ce929190613028565b5060608201518160030190805190602001906112eb929190613028565b506080820151816004019080519060200190611308929190613028565b5060a0820151816005015560c0820151816006015560e082015181600701556101008201518160080190805190602001906113449291906130ae565b50505050505050565b61135561310e565b600460008373ffffffffffffffffffffffffffffffffffffffff1673ffffffffffffffffffffffffffffffffffffffff1681526020019081526020016000206001600460008573ffffffffffffffffffffffffffffffffffffffff1673ffffffffffffffffffffffffffffffffffffffff168152602001908152602001600020805490506113e39190613fea565b815481106113f4576113f3613fbb565b5b90600052602060002090600902016040518061012001604052908160008201805461141e90613dcd565b80601f016020809104026020016040519081016040528092919081815260200182805461144a90613dcd565b80156114975780601f1061146c57610100808354040283529160200191611497565b820191906000526020600020905b81548152906001019060200180831161147a57829003601f168201915b505050505081526020016001820160009054906101000a900473ffffffffffffffffffffffffffffffffffffffff1673ffffffffffffffffffffffffffffffffffffffff1673ffffffffffffffffffffffffffffffffffffffff16815260200160028201805461150690613dcd565b80601f016020809104026020016040519081016040528092919081815260200182805461153290613dcd565b801561157f5780601f106115545761010080835404028352916020019161157f565b820191906000526020600020905b81548152906001019060200180831161156257829003601f168201915b5050505050815260200160038201805461159890613dcd565b80601f01602080910402602001604051908101604052809291908181526020018280546115c490613dcd565b80156116115780601f106115e657610100808354040283529160200191611611565b820191906000526020600020905b8154815290600101906020018083116115f457829003601f168201915b5050505050815260200160048201805461162a90613dcd565b80601f016020809104026020016040519081016040528092919081815260200182805461165690613dcd565b80156116a35780601f10611678576101008083540402835291602001916116a3565b820191906000526020600020905b81548152906001019060200180831161168657829003601f168201915b5050505050815260200160058201548152602001600682015481526020016007820154815260200160088201805480602002602001604051908101604052809291908181526020016000905b8282101561179b57838290600052602060002001805461170e90613dcd565b80601f016020809104026020016040519081016040528092919081815260200182805461173a90613dcd565b80156117875780601f1061175c57610100808354040283529160200191611787565b820191906000526020600020905b81548152906001019060200180831161176a57829003601f168201915b5050505050815260200190600101906116ef565b50505050815250509050919050565b6000806000905060005b600360008573ffffffffffffffffffffffffffffffffffffffff1673ffffffffffffffffffffffffffffffffffffffff168152602001908152602001600020600101805490508110156118d9573373ffffffffffffffffffffffffffffffffffffffff16600360008673ffffffffffffffffffffffffffffffffffffffff1673ffffffffffffffffffffffffffffffffffffffff168152602001908152602001600020600101828154811061186c5761186b613fbb565b5b906000526020600020906002020160000160009054906101000a900473ffffffffffffffffffffffffffffffffffffffff1673ffffffffffffffffffffffffffffffffffffffff1614156118c657809250600191506118d9565b80806118d190613f72565b9150506117b4565b508015611b2257600360008473ffffffffffffffffffffffffffffffffffffffff1673ffffffffffffffffffffffffffffffffffffffff1681526020019081526020016000206001016001600360008673ffffffffffffffffffffffffffffffffffffffff1673ffffffffffffffffffffffffffffffffffffffff168152602001908152602001600020600101805490506119749190613fea565b8154811061198557611984613fbb565b5b9060005260206000209060020201600360008573ffffffffffffffffffffffffffffffffffffffff1673ffffffffffffffffffffffffffffffffffffffff16815260200190815260200160002060010183815481106119e7576119e6613fbb565b5b90600052602060002090600202016000820160009054906101000a900473ffffffffffffffffffffffffffffffffffffffff168160000160006101000a81548173ffffffffffffffffffffffffffffffffffffffff021916908373ffffffffffffffffffffffffffffffffffffffff1602179055506001820181600101908054611a7090613dcd565b611a7b929190613170565b50905050600360008473ffffffffffffffffffffffffffffffffffffffff1673ffffffffffffffffffffffffffffffffffffffff168152602001908152602001600020600101805480611ad157611ad061401e565b5b6001900381819060005260206000209060020201600080820160006101000a81549073ffffffffffffffffffffffffffffffffffffffff0219169055600182016000611b1d91906131fd565b505090555b6000806000905060005b600360003373ffffffffffffffffffffffffffffffffffffffff1673ffffffffffffffffffffffffffffffffffffffff16815260200190815260200160002060020180549050811015611c51578573ffffffffffffffffffffffffffffffffffffffff16600360003373ffffffffffffffffffffffffffffffffffffffff1673ffffffffffffffffffffffffffffffffffffffff1681526020019081526020016000206002018281548110611be457611be3613fbb565b5b906000526020600020906002020160000160009054906101000a900473ffffffffffffffffffffffffffffffffffffffff1673ffffffffffffffffffffffffffffffffffffffff161415611c3e5780925060019150611c51565b8080611c4990613f72565b915050611b2c565b508015611ea0576000600360003373ffffffffffffffffffffffffffffffffffffffff1673ffffffffffffffffffffffffffffffffffffffff168152602001908152602001600020600201805490509050600360003373ffffffffffffffffffffffffffffffffffffffff1673ffffffffffffffffffffffffffffffffffffffff168152602001908152602001600020600201600182611cf19190613fea565b81548110611d0257611d01613fbb565b5b9060005260206000209060020201600360003373ffffffffffffffffffffffffffffffffffffffff1673ffffffffffffffffffffffffffffffffffffffff1681526020019081526020016000206002018481548110611d6457611d63613fbb565b5b90600052602060002090600202016000820160009054906101000a900473ffffffffffffffffffffffffffffffffffffffff168160000160006101000a81548173ffffffffffffffffffffffffffffffffffffffff021916908373ffffffffffffffffffffffffffffffffffffffff1602179055506001820181600101908054611ded90613dcd565b611df8929190613170565b50905050600360003373ffffffffffffffffffffffffffffffffffffffff1673ffffffffffffffffffffffffffffffffffffffff168152602001908152602001600020600201805480611e4e57611e4d61401e565b5b6001900381819060005260206000209060020201600080820160006101000a81549073ffffffffffffffffffffffffffffffffffffffff0219169055600182016000611e9a91906131fd565b50509055505b5050505050565b60606000805480602002602001604051908101604052809291908181526020016000905b82821015611fe55783829060005260206000209060020201604051806040016040529081600082018054611efe90613dcd565b80601f0160208091040260200160405190810160405280929190818152602001828054611f2a90613dcd565b8015611f775780601f10611f4c57610100808354040283529160200191611f77565b820191906000526020600020905b815481529060010190602001808311611f5a57829003601f168201915b505050505081526020016001820160009054906101000a900473ffffffffffffffffffffffffffffffffffffffff1673ffffffffffffffffffffffffffffffffffffffff1673ffffffffffffffffffffffffffffffffffffffff168152505081526020019060010190611ecb565b50505050905090565b6060600360003373ffffffffffffffffffffffffffffffffffffffff1673ffffffffffffffffffffffffffffffffffffffff168152602001908152602001600020600201805480602002602001604051908101604052809291908181526020016000905b8282101561216c57838290600052602060002090600202016040518060400160405290816000820160009054906101000a900473ffffffffffffffffffffffffffffffffffffffff1673ffffffffffffffffffffffffffffffffffffffff1673ffffffffffffffffffffffffffffffffffffffff1681526020016001820180546120db90613dcd565b80601f016020809104026020016040519081016040528092919081815260200182805461210790613dcd565b80156121545780601f1061212957610100808354040283529160200191612154565b820191906000526020600020905b81548152906001019060200180831161213757829003601f168201915b50505050508152505081526020019060010190612052565b50505050905090565b600080600090505b600360008473ffffffffffffffffffffffffffffffffffffffff1673ffffffffffffffffffffffffffffffffffffffff168152602001908152602001600020600101805490508110156122a0578373ffffffffffffffffffffffffffffffffffffffff16600360008573ffffffffffffffffffffffffffffffffffffffff1673ffffffffffffffffffffffffffffffffffffffff168152602001908152602001600020600101828154811061223557612234613fbb565b5b906000526020600020906002020160000160009054906101000a900473ffffffffffffffffffffffffffffffffffffffff1673ffffffffffffffffffffffffffffffffffffffff16141561228d5760019150506122a6565b808061229890613f72565b91505061217d565b50600090505b92915050565b6060600360008373ffffffffffffffffffffffffffffffffffffffff1673ffffffffffffffffffffffffffffffffffffffff16815260200190815260200160002060000180546122fb90613dcd565b80601f016020809104026020016040519081016040528092919081815260200182805461232790613dcd565b80156123745780601f1061234957610100808354040283529160200191612374565b820191906000526020600020905b81548152906001019060200180831161235757829003601f168201915b50505050509050919050565b612389336104da565b6123c8576040517f08c379a00000000000000000000000000000000000000000000000000000000081526004016123bf90614099565b60405180910390fd5b6123d1816104da565b612410576040517f08c379a000000000000000000000000000000000000000000000000000000000815260040161240790614105565b60405180910390fd5b8073ffffffffffffffffffffffffffffffffffffffff163373ffffffffffffffffffffffffffffffffffffffff16141561247f576040517f08c379a000000000000000000000000000000000000000000000000000000000815260040161247690614197565b60405180910390fd5b6000151561248d3383612175565b1515146124cf576040517f08c379a00000000000000000000000000000000000000000000000000000000081526004016124c690614203565b60405180910390fd5b6125a48133600360003373ffffffffffffffffffffffffffffffffffffffff1673ffffffffffffffffffffffffffffffffffffffff168152602001908152602001600020600001805461252190613dcd565b80601f016020809104026020016040519081016040528092919081815260200182805461254d90613dcd565b801561259a5780601f1061256f5761010080835404028352916020019161259a565b820191906000526020600020905b81548152906001019060200180831161257d57829003601f168201915b5050505050612ccf565b60005b600360008373ffffffffffffffffffffffffffffffffffffffff1673ffffffffffffffffffffffffffffffffffffffff168152602001908152602001600020600301805490508110156127ef57600460003373ffffffffffffffffffffffffffffffffffffffff1673ffffffffffffffffffffffffffffffffffffffff168152602001908152602001600020600360008473ffffffffffffffffffffffffffffffffffffffff1673ffffffffffffffffffffffffffffffffffffffff168152602001908152602001600020600301828154811061268757612686613fbb565b5b9060005260206000209060090201908060018154018082558091505060019003906000526020600020906009020160009091909190915060008201816000019080546126d290613dcd565b6126dd929190613170565b506001820160009054906101000a900473ffffffffffffffffffffffffffffffffffffffff168160010160006101000a81548173ffffffffffffffffffffffffffffffffffffffff021916908373ffffffffffffffffffffffffffffffffffffffff160217905550600282018160020190805461275990613dcd565b612764929190613170565b50600382018160030190805461277990613dcd565b612784929190613170565b50600482018160040190805461279990613dcd565b6127a4929190613170565b5060058201548160050155600682015481600601556007820154816007015560088201816008019080546127d992919061323d565b50505080806127e790613f72565b9150506125a7565b5050565b60606000600460008473ffffffffffffffffffffffffffffffffffffffff1673ffffffffffffffffffffffffffffffffffffffff168152602001908152602001600020805490501115612c7257600460008373ffffffffffffffffffffffffffffffffffffffff1673ffffffffffffffffffffffffffffffffffffffff168152602001908152602001600020805480602002602001604051908101604052809291908181526020016000905b82821015612c675783829060005260206000209060090201604051806101200160405290816000820180546128d390613dcd565b80601f01602080910402602001604051908101604052809291908181526020018280546128ff90613dcd565b801561294c5780601f106129215761010080835404028352916020019161294c565b820191906000526020600020905b81548152906001019060200180831161292f57829003601f168201915b505050505081526020016001820160009054906101000a900473ffffffffffffffffffffffffffffffffffffffff1673ffffffffffffffffffffffffffffffffffffffff1673ffffffffffffffffffffffffffffffffffffffff1681526020016002820180546129bb90613dcd565b80601f01602080910402602001604051908101604052809291908181526020018280546129e790613dcd565b8015612a345780601f10612a0957610100808354040283529160200191612a34565b820191906000526020600020905b815481529060010190602001808311612a1757829003601f168201915b50505050508152602001600382018054612a4d90613dcd565b80601f0160208091040260200160405190810160405280929190818152602001828054612a7990613dcd565b8015612ac65780601f10612a9b57610100808354040283529160200191612ac6565b820191906000526020600020905b815481529060010190602001808311612aa957829003601f168201915b50505050508152602001600482018054612adf90613dcd565b80601f0160208091040260200160405190810160405280929190818152602001828054612b0b90613dcd565b8015612b585780601f10612b2d57610100808354040283529160200191612b58565b820191906000526020600020905b815481529060010190602001808311612b3b57829003601f168201915b5050505050815260200160058201548152602001600682015481526020016007820154815260200160088201805480602002602001604051908101604052809291908181526020016000905b82821015612c50578382906000526020600020018054612bc390613dcd565b80601f0160208091040260200160405190810160405280929190818152602001828054612bef90613dcd565b8015612c3c5780601f10612c1157610100808354040283529160200191612c3c565b820191906000526020600020905b815481529060010190602001808311612c1f57829003601f168201915b505050505081526020019060010190612ba4565b50505050815250508152602001906001019061289f565b505050509050612cca565b600067ffffffffffffffff811115612c8d57612c8c6138fc565b5b604051908082528060200260200182016040528015612cc657816020015b612cb361310e565b815260200190600190039081612cab5790505b5090505b919050565b600060405180604001604052808473ffffffffffffffffffffffffffffffffffffffff168152602001838152509050600360008573ffffffffffffffffffffffffffffffffffffffff1673ffffffffffffffffffffffffffffffffffffffff16815260200190815260200160002060010181908060018154018082558091505060019003906000526020600020906002020160009091909190915060008201518160000160006101000a81548173ffffffffffffffffffffffffffffffffffffffff021916908373ffffffffffffffffffffffffffffffffffffffff1602179055506020820151816001019080519060200190612dcd929190613028565b505050600060405180604001604052808673ffffffffffffffffffffffffffffffffffffffff168152602001600360008873ffffffffffffffffffffffffffffffffffffffff1673ffffffffffffffffffffffffffffffffffffffff1681526020019081526020016000206000018054612e4690613dcd565b80601f0160208091040260200160405190810160405280929190818152602001828054612e7290613dcd565b8015612ebf5780601f10612e9457610100808354040283529160200191612ebf565b820191906000526020600020905b815481529060010190602001808311612ea257829003601f168201915b50505050508152509050600360008573ffffffffffffffffffffffffffffffffffffffff1673ffffffffffffffffffffffffffffffffffffffff16815260200190815260200160002060020181908060018154018082558091505060019003906000526020600020906002020160009091909190915060008201518160000160006101000a81548173ffffffffffffffffffffffffffffffffffffffff021916908373ffffffffffffffffffffffffffffffffffffffff1602179055506020820151816001019080519060200190612f98929190613028565b5050505050505050565b828054612fae90613dcd565b90600052602060002090601f016020900481019282612fd05760008555613017565b82601f10612fe957803560ff1916838001178555613017565b82800160010185558215613017579182015b82811115613016578235825591602001919060010190612ffb565b5b50905061302491906132a5565b5090565b82805461303490613dcd565b90600052602060002090601f016020900481019282613056576000855561309d565b82601f1061306f57805160ff191683800117855561309d565b8280016001018555821561309d579182015b8281111561309c578251825591602001919060010190613081565b5b5090506130aa91906132a5565b5090565b8280548282559060005260206000209081019282156130fd579160200282015b828111156130fc5782518290805190602001906130ec929190613028565b50916020019190600101906130ce565b5b50905061310a91906132c2565b5090565b60405180610120016040528060608152602001600073ffffffffffffffffffffffffffffffffffffffff168152602001606081526020016060815260200160608152602001600081526020016000815260200160008152602001606081525090565b82805461317c90613dcd565b90600052602060002090601f01602090048101928261319e57600085556131ec565b82601f106131af57805485556131ec565b828001600101855582156131ec57600052602060002091601f016020900482015b828111156131eb5782548255916001019190600101906131d0565b5b5090506131f991906132a5565b5090565b50805461320990613dcd565b6000825580601f1061321b575061323a565b601f01602090049060005260206000209081019061323991906132a5565b5b50565b8280548282559060005260206000209081019282156132945760005260206000209182015b8281111561329357828290805461327890613dcd565b613283929190613170565b5091600101919060010190613262565b5b5090506132a191906132c2565b5090565b5b808211156132be5760008160009055506001016132a6565b5090565b5b808211156132e257600081816132d991906131fd565b506001016132c3565b5090565b600081519050919050565b600082825260208201905092915050565b6000819050602082019050919050565b600073ffffffffffffffffffffffffffffffffffffffff82169050919050565b600061333d82613312565b9050919050565b61334d81613332565b82525050565b600081519050919050565b600082825260208201905092915050565b60005b8381101561338d578082015181840152602081019050613372565b8381111561339c576000848401525b50505050565b6000601f19601f8301169050919050565b60006133be82613353565b6133c8818561335e565b93506133d881856020860161336f565b6133e1816133a2565b840191505092915050565b60006040830160008301516134046000860182613344565b506020830151848203602086015261341c82826133b3565b9150508091505092915050565b600061343583836133ec565b905092915050565b6000602082019050919050565b6000613455826132e6565b61345f81856132f1565b93508360208202850161347185613302565b8060005b858110156134ad578484038952815161348e8582613429565b94506134998361343d565b925060208a01995050600181019050613475565b50829750879550505050505092915050565b600060208201905081810360008301526134d9818461344a565b905092915050565b6000604051905090565b600080fd5b600080fd5b6134fe81613332565b811461350957600080fd5b50565b60008135905061351b816134f5565b92915050565b600060208284031215613537576135366134eb565b5b60006135458482850161350c565b91505092915050565b60008115159050919050565b6135638161354e565b82525050565b600060208201905061357e600083018461355a565b92915050565b600080fd5b600080fd5b600080fd5b60008083601f8401126135a9576135a8613584565b5b8235905067ffffffffffffffff8111156135c6576135c5613589565b5b6020830191508360018202830111156135e2576135e161358e565b5b9250929050565b60008060208385031215613600576135ff6134eb565b5b600083013567ffffffffffffffff81111561361e5761361d6134f0565b5b61362a85828601613593565b92509250509250929050565b600081519050919050565b600082825260208201905092915050565b6000819050602082019050919050565b600061366d82613312565b9050919050565b61367d81613662565b82525050565b6000819050919050565b61369681613683565b82525050565b600081519050919050565b600082825260208201905092915050565b6000819050602082019050919050565b60006136d483836133b3565b905092915050565b6000602082019050919050565b60006136f48261369c565b6136fe81856136a7565b935083602082028501613710856136b8565b8060005b8581101561374c578484038952815161372d85826136c8565b9450613738836136dc565b925060208a01995050600181019050613714565b50829750879550505050505092915050565b600061012083016000830151848203600086015261377c82826133b3565b91505060208301516137916020860182613674565b50604083015184820360408601526137a982826133b3565b915050606083015184820360608601526137c382826133b3565b915050608083015184820360808601526137dd82826133b3565b91505060a08301516137f260a086018261368d565b5060c083015161380560c086018261368d565b5060e083015161381860e086018261368d565b5061010083015184820361010086015261383282826136e9565b9150508091505092915050565b600061384b838361375e565b905092915050565b6000602082019050919050565b600061386b82613636565b6138758185613641565b93508360208202850161388785613652565b8060005b858110156138c357848403895281516138a4858261383f565b94506138af83613853565b925060208a0199505060018101905061388b565b50829750879550505050505092915050565b600060208201905081810360008301526138ef8184613860565b905092915050565b600080fd5b7f4e487b7100000000000000000000000000000000000000000000000000000000600052604160045260246000fd5b613934826133a2565b810181811067ffffffffffffffff82111715613953576139526138fc565b5b80604052505050565b60006139666134e1565b9050613972828261392b565b919050565b600067ffffffffffffffff821115613992576139916138fc565b5b61399b826133a2565b9050602081019050919050565b82818337600083830152505050565b60006139ca6139c584613977565b61395c565b9050828152602081018484840111156139e6576139e56138f7565b5b6139f18482856139a8565b509392505050565b600082601f830112613a0e57613a0d613584565b5b8135613a1e8482602086016139b7565b91505092915050565b600080600060608486031215613a4057613a3f6134eb565b5b600084013567ffffffffffffffff811115613a5e57613a5d6134f0565b5b613a6a868287016139f9565b935050602084013567ffffffffffffffff811115613a8b57613a8a6134f0565b5b613a97868287016139f9565b925050604084013567ffffffffffffffff811115613ab857613ab76134f0565b5b613ac4868287016139f9565b9150509250925092565b6000610120830160008301518482036000860152613aec82826133b3565b9150506020830151613b016020860182613674565b5060408301518482036040860152613b1982826133b3565b91505060608301518482036060860152613b3382826133b3565b91505060808301518482036080860152613b4d82826133b3565b91505060a0830151613b6260a086018261368d565b5060c0830151613b7560c086018261368d565b5060e0830151613b8860e086018261368d565b50610100830151848203610100860152613ba282826136e9565b9150508091505092915050565b60006020820190508181036000830152613bc98184613ace565b905092915050565b600081519050919050565b600082825260208201905092915050565b6000819050602082019050919050565b60006040830160008301518482036000860152613c1a82826133b3565b9150506020830151613c2f6020860182613344565b508091505092915050565b6000613c468383613bfd565b905092915050565b6000602082019050919050565b6000613c6682613bd1565b613c708185613bdc565b935083602082028501613c8285613bed565b8060005b85811015613cbe5784840389528151613c9f8582613c3a565b9450613caa83613c4e565b925060208a01995050600181019050613c86565b50829750879550505050505092915050565b60006020820190508181036000830152613cea8184613c5b565b905092915050565b60008060408385031215613d0957613d086134eb565b5b6000613d178582860161350c565b9250506020613d288582860161350c565b9150509250929050565b600082825260208201905092915050565b6000613d4e82613353565b613d588185613d32565b9350613d6881856020860161336f565b613d71816133a2565b840191505092915050565b60006020820190508181036000830152613d968184613d43565b905092915050565b7f4e487b7100000000000000000000000000000000000000000000000000000000600052602260045260246000fd5b60006002820490506001821680613de557607f821691505b60208210811415613df957613df8613d9e565b5b50919050565b7f5573657220616c726564792068617320616e206163636f756e74210000000000600082015250565b6000613e35601b83613d32565b9150613e4082613dff565b602082019050919050565b60006020820190508181036000830152613e6481613e28565b9050919050565b7f55736572206e616d652073686f756c64206e6f7420626520656d707479210000600082015250565b6000613ea1601e83613d32565b9150613eac82613e6b565b602082019050919050565b60006020820190508181036000830152613ed081613e94565b9050919050565b7f55736572206e6f74207265676973746572656421000000000000000000000000600082015250565b6000613f0d601483613d32565b9150613f1882613ed7565b602082019050919050565b60006020820190508181036000830152613f3c81613f00565b9050919050565b7f4e487b7100000000000000000000000000000000000000000000000000000000600052601160045260246000fd5b6000613f7d82613683565b91507fffffffffffffffffffffffffffffffffffffffffffffffffffffffffffffffff821415613fb057613faf613f43565b5b600182019050919050565b7f4e487b7100000000000000000000000000000000000000000000000000000000600052603260045260246000fd5b6000613ff582613683565b915061400083613683565b92508282101561401357614012613f43565b5b828203905092915050565b7f4e487b7100000000000000000000000000000000000000000000000000000000600052603160045260246000fd5b7f43726561746520616e206163636f756e74206669727374000000000000000000600082015250565b6000614083601783613d32565b915061408e8261404d565b602082019050919050565b600060208201905081810360008301526140b281614076565b9050919050565b7f55736572206973206e6f74207265676973746572656421000000000000000000600082015250565b60006140ef601783613d32565b91506140fa826140b9565b602082019050919050565b6000602082019050818103600083015261411e816140e2565b9050919050565b7f55736572732063616e6e6f7420616464207468656d6573656c7665732061732060008201527f667269656e647300000000000000000000000000000000000000000000000000602082015250565b6000614181602783613d32565b915061418c82614125565b604082019050919050565b600060208201905081810360008301526141b081614174565b9050919050565b7f54686573652075736572732061726520616c726561647920667269656e647300600082015250565b60006141ed601f83613d32565b91506141f8826141b7565b602082019050919050565b6000602082019050818103600083015261421c816141e0565b905091905056fea2646970667358221220cac60a7744fe3bd1ba7114b3980bd0bcf216fd73ddd984b772ada5f36d30ed4664736f6c63430008090033",
  "linkReferences": {},
  "deployedLinkReferences": {}
}